:020000041A00E0
:10000000008000108505001A7901001A7B01001A92
:100010007D01001A7F01001A8101001A0A73FF5343
:100020000000000000000000000000008301001A32
:100030008501001A000000008701001AA917001AA4
:10004000BB01001ABB01001ABB01001A000000002E
:10005000BB01001ABB01001ABB01001ABB01001A48
:10006000C11A001ABB01001ABB01001ABB01001A19
:10007000D917001A1918001A5918001A9D18001AD1
:10008000BB01001ABB01001ABB01001ABB01001A18
:10009000BB01001ABB01001ABB01001ABB01001A08
:1000A000BD01001ABB01001AF316001AFD16001A52
:1000B000BB01001ABB01001ABB01001ABB01001AE8
:1000C0001D1C001A271C001A311C001ABB01001A43
:1000D000BB01001ABB01001ABB01001ABB01001AC8
:1000E000BB01001ABB01001ABB01001ABB01001AB8
:1000F00000000000BB01001ABB01001ABB01001A7E
:1001000000000000BB01001ABB01001ABB01001A6D
:10011000BB01001A902B001A0000001034010000EF
:10012000902B001A0000081000000000902B001A0D
:100130000000002000000000902B001A008000202A
:1001400000000000902B001A00C0002000000000FA
:1001500038010010580000000000081000000000E6
:1001600000000020000000000080002000000000CF
:1001700000C0002000000000FEE7FEE7FEE7FEE70B
:10018000FEE7FEE7FEE7FEE7FEE7002393420AD222
:1001900010B450F8044B41F8044B04339342F8D3A5
:1001A0005DF8044B7047704700238B4204D2002255
:1001B00040F8042B0433F8E77047FEE708B5002049
:1001C00001F04CF908BDFFFFFFFFFFFFFFFFFFFF3E
:1001D000FFFFFFFFFFFFFFFFFFFFFFFFFFFFFFFF2F
:1001E000FFFFFFFFFFFFFFFFFFFFFFFFFFFFFFFF1F
:1001F000FFFFFFFFFFFFFFFFFFFFFFFFFFFFFFFF0F
:10020000FFFFFFFFFFFFFFFFFFFFFFFFFFFFFFFFFE
:10021000FFFFFFFFFFFFFFFFFFFFFFFFFFFFFFFFEE
:10022000FFFFFFFFFFFFFFFFFFFFFFFFFFFFFFFFDE
:10023000FFFFFFFFFFFFFFFFFFFFFFFFFFFFFFFFCE
:10024000FFFFFFFFFFFFFFFFFFFFFFFFFFFFFFFFBE
:10025000FFFFFFFFFFFFFFFFFFFFFFFFFFFFFFFFAE
:10026000FFFFFFFFFFFFFFFFFFFFFFFFFFFFFFFF9E
:10027000FFFFFFFFFFFFFFFFFFFFFFFFFFFFFFFF8E
:10028000FFFFFFFFFFFFFFFFFFFFFFFFFFFFFFFF7E
:10029000FFFFFFFFFFFFFFFFFFFFFFFFFFFFFFFF6E
:1002A000FFFFFFFFFFFFFFFFFFFFFFFFFFFFFFFF5E
:1002B000FFFFFFFFFFFFFFFFFFFFFFFFFFFFFFFF4E
:1002C000FFFFFFFFFFFFFFFFFFFFFFFFFFFFFFFF3E
:1002D000FFFFFFFFFFFFFFFFFFFFFFFFFFFFFFFF2E
:1002E000FFFFFFFFFFFFFFFFFFFFFFFFFFFFFFFF1E
:1002F000FFFFFFFFFFFFFFFFFFFFFFFFFFFFFFFF0E
:1003000000EB8000014B1844704700BF3028001AF2
:100310000B2894BF00200120704710B50446FFF75A
:10032000F7FF70B92046FFF7EBFF8378C2785B01D7
:1003300003F1402303F57023985C003018BF0120BF
:1003400010BD0020FCE738B505460C46FFF7E0FF7E
:1003500050B92846FFF7D4FF8378C2785B0103F1D8
:10036000402303F570239C5438BD08B5052001F0E7
:1003700061F93138032807D8DFE800F002070C11D3
:1003800001210320FFF7DFFF08BD01210420FFF753
:10039000DAFFF9E700210520FFF7D5FFF4E7002198
:1003A0000846FFF7D0FFEFE708B501F097FB00F034
:1003B00065FA00F013FC4FF4E131052001F04EF92D
:1003C0000023054A1946052001F0E2F80121052025
:1003D00001F096F808BD00BF6B03001A08B5063897
:1003E000032827D8DFE800F0020B141D01210320A9
:1003F000FFF7A9FF3121052001F06EF908BD0121A9
:100400000420FFF7A0FF3221052001F065F9F5E790
:1004100000210520FFF797FF3321052001F05CF94B
:10042000ECE700210846FFF78EFF3421052001F09C
:1004300053F9E3E7014802F07FF8DFE76C28001A80
:10044000F0B589B0FFF7B0FF3222002302A801F017
:100450007FFB00238DF8073000F04EF8074600F0D0
:100460004BF8064600F048F8054600F045F804460B
:1004700002A801F07DFB0028FAD00DF1070106204B
:1004800000F040F89DF80730012B1FD00DF1070157
:10049000072000F037F89DF80730012B1BD00DF135
:1004A0000701082000F02EF89DF80730012B17D027
:1004B0000DF10701092000F025F89DF80730012B08
:1004C000D6D121460920FFF789FFD1E7394606201A
:1004D000FFF784FFDAE731460720FFF77FFFDEE70B
:1004E00029460820FFF77AFFE2E7FFFF014B0022D1
:1004F0001A70704778010010014B00221A70704783
:100500007801001010B50C461C4B1B78032B31D81A
:10051000DFE803F0020B1421FFF7FFFE10B9174BC1
:1005200002221A700023237010BDFFF7F6FE10B1EF
:10053000124B03221A7000232370F5E7FFF7EDFE3C
:1005400020B901230D4A13702370EDE700230B4AF5
:1005500013702370E8E7FFF7E0FE28B1074B002295
:100560001A7001232370DFE7044B01221A70002365
:100570002370D9E7FFF7BAFFD6E700BF7801001074
:100580007047FFFF10B572B6194B1A4A1A60043350
:10059000194A1A60002305E0184A4FF0FF3142F86B
:1005A00023100133072BF7D962B6154B07E003F18F
:1005B0000C049A6859681868FFF7E7FD2346114A4A
:1005C0009342F4D306E01C46596854F8080BFFF731
:1005D000EBFD23460C4A9342F5D300F015FF01F0E2
:1005E00065FEFFF7CDFFFFF72BFF30BFFDE700BF34
:1005F000003105400010DF10FFF7DF0180E200E06E
:100600001401001A5001001A7801001A704770474F
:10061000092303604FF0FF307047582303604FF009
:10062000FF307047022904D9092303604FF0FF30DF
:10063000704701207047582303604FF0FF30704728
:1006400002291FD82DE9F0411D4617460646002411
:10065000AC4211D200F02FF9B0F1FF3FF8D004F115
:10066000010838550D2803D00A2801D04446EFE789
:1006700000F021F9404603E0132333604FF0FF30D0
:10068000BDE8F081132303604FF0FF30704702296B
:100690000CD870B51D4616460024AC4204D2305D1D
:1006A00000F004F90134F8E7284670BD1323036015
:1006B0004FF0FF307047FFFF054B1B6823B1044B21
:1006C0001868014419607047014B024A1A60F6E746
:1006D00038010010900100100022052A19D870B4CA
:1006E0000C4911F8125001EB42014C780A4B05F508
:1006F000006653F826100120A040014343F826105D
:1007000003EB4513002119550132052AE8D970BCC5
:10071000704770478028001A00400F400023032BC9
:1007200016D830B40B4911F8132001EB43014D7872
:10073000094C02F5006254F822100120A84021EA79
:10074000000144F822100133032BEBD930BC704771
:10075000704700BF7828001A00400F400023082B84
:1007600016D830B40B4911F8132001EB43014D7832
:10077000094C02F5006254F822100120A84021EA39
:10078000000144F822100133082BEBD930BC70472C
:10079000704700BF8C28001A00400F4010B582B08F
:1007A000084C6946204600F0D9F9074A69462046B8
:1007B00000F0F4F900226946204600F008FA02B081
:1007C00010BD00BF00300E40801A060010B50B4C63
:1007D000204600F0BFFD636823F0040363602368D4
:1007E00023F0FF0343F0070323600549204600F090
:1007F00092FD636843F00203636010BD00500C403B
:10080000A086010008B5002000F0D0FD044B40F6A2
:100810000802C3F8842C0349002000F0D9FD08BD6C
:100820000060084040420F0010B5074C204600F021
:10083000B9F84FF4E131204600F0FEF80323E360FD
:100840000123E36510BD00BF00100C40034B5B6942
:1008500013F0200FFAD0014B1860704700100C40C5
:10086000054B5B6913F0010F03D0034B1868C0B24E
:1008700070474FF0FF30704700100C4008B5FFF78D
:10088000D3FF094800F026FDFFF768FFFFF786FF5A
:10089000FFF79CFFFFF7B6FFFFF71EFFFFF73EFFD6
:1008A00000F09CF908BD00BF00400F4008B5C0B281
:1008B000FFF7CCFF08BD08B5FFF7D2FF08BD08B5AC
:1008C000FFF7B2FF08BDFFFF00231C2B12D810B4A6
:1008D000094A02EB830112F823404A78488802EB68
:1008E0004412064941F8220001331C2BF0D95DF86F
:1008F000044B7047704700BFA828001A00600840EA
:1009000010B5174AD2F8203123F4704343F4104352
:10091000C2F82031D2F8243123F4704343F4104359
:10092000C2F8243101220F49062000F027FC0024E0
:100930004CB10B4B5A6822F00C025A605A6842F0D4
:1009400003025A6010BD084800EB840101238A7835
:10095000497810F8240000F06DFB0134E8E700BF8F
:100960000030044000CB280CA428001A08B5FFF77B
:10097000ABFFFFF7C5FF08BD094B984209D003F54F
:100980008053984207D0A3F58023984205D00020D9
:10099000704702207047032070470120704700BF56
:1009A00000100C4030B583B00446FFF7E5FF01238B
:1009B0001A4619460E4D35F8100000F081FB07234A
:1009C000A3600023E3656360E3602362E36463651F
:1009D0002365084B9C4206D00323E3601023A362E7
:1009E000019B03B030BD00232361A3690193F3E7AA
:1009F0002429001A0020084038B505460C46FFF7A8
:100A0000BBFF0C4B33F8100000F092FB2301B0FB4E
:100A1000F3F3D9B2EA6842F08002EA602960C3F3D6
:100A200007226A60EA6822F08002EA60B0FBF3F015
:100A3000000938BD1C29001A2DE9F04F83B0019040
:100A40008846FFF799FF324B33F8100000F070FB37
:100A500006464FF0FF3701244FF0000BA246D9465F
:100A60002AE042424B1C17E00AB31746AB46A246A7
:100A700099460135AC421ED933093007A4FB000169
:100A800004FB0311621908FB02F2002301F0D6F8FF
:100A900002460B460028E4DB9742EAD3002BE8D05D
:100AA000190CE6D1022BDFD8002DDDD0E1E7174687
:100AB000AB46A246994601341FB10F2C01D8002540
:100AC000D8E7B9F1000F1ED0019A1146D36843F060
:100AD0008003D3605FFA89F31360C9F3072353607F
:100AE000D36823F08003D3604FEA0A13DBB20BF024
:100AF0000F0213438B6233090AFB03F3DA4409FB49
:100B00000AF9B3FBF9F9484603B0BDE8F08F00BF1E
:100B10001C29001A034B984201D00320704704207F
:100B2000704700BF00400E4070B50D4614461E468B
:100B3000FFF7F0FF00F0FCFA55B104FB06F404EBFC
:100B400040006400B0FBF4F0C0B20138C0B270BD28
:100B500004EB840304EB4304F1E7FFFF38B50546DB
:100B60000C46FFF7D7FF01231A46194600F0A8FAF2
:100B70000021E960084A2260217161710B23284637
:100B8000FFF7D2FF000240F400132079400400F484
:100B900060201843286038BD801A060070B50546ED
:100BA0000E46046824F46F2424F470640A600B7900
:100BB000C3F10B03DBB24979FFF7B6FF44EA00202B
:100BC00033795B0403F4602303432B6070BD08B5E5
:100BD0000A710A68FFF7E2FF08BDFFFF08B5692048
:100BE00000F0A6FA014B186008BD00BF7C010010A0
:100BF000F0B40B6813F0800F02D023F040030B60B9
:100C0000074601253AE04B6903FB02F3B3FBF5F31A
:100C10001CE01C46B0EB040C27D4674506D98D6058
:100C2000771CCF600A618C61CB6167460132B2F5F7
:100C3000807F1DDC0C6814F0400FE4D0731C02FAB6
:100C400003FC4B6903FB0CF3B3FBF5F3DFF838C08F
:100C50006345EBD9DFF834C0634509D814F0800F41
:100C6000D7D1741C23FA04F4D4E7CCF1000CD4E7F8
:100C70000136032E01DC0122D9E70135042D01DC08
:100C80000026F6E7F0BC7047FF5E4C0900D0121357
:100C9000F0B599B005460C465C22002101A801F090
:100CA0002CFB802300936369059323798DF804302E
:100CB00069462846FFF79CFF069BAB4227D0EB1AFC
:100CC0002ED41E46109B23F04003109363691593A6
:100CD00023798DF8443010A92846FFF789FF169B29
:100CE000AB421FD0EB1A25D41F462B4B9D4223D974
:100CF0000E9BED1A33D4AE423BDCBE4231DC6D4676
:100D00000FCD0FC495E80F0084E80F0006E06D4694
:100D10000FCD0FC495E80F0084E80F0019B0F0BDA7
:100D20005B42CEE710AD0FCD0FC495E80F0084E80D
:100D30000F00F3E75B42D7E74023089363690D9305
:100D400008A92846FFF754FF0E9BAB42D0D108AD4F
:100D50000FCD0FC495E80F0084E80F00DEE76D4269
:100D6000C9E710AD0FCD0FC495E80F0084E80F0060
:100D7000D4E7AF4207DB08AD0FCD0FC495E80F00F5
:100D800084E80F00CAE710AD0FCD0FC495E80F003F
:100D900084E80F00C2E700BF80778E0630B40546B6
:100DA00000231C2000E001331C2818D103EB430270
:100DB00051000C4A0A441479844210D003EB4301D9
:100DC0004A0008498A5AAA42EDD803EB430251006F
:100DD000044A0A445288AA42E5D32046E4E730BCDC
:100DE000704700BF3829001A82B04FF47A7301931C
:100DF0000D4A936923F0020192698A4201D00A4A9E
:100E0000916123F00303094A1168094A914201D90B
:100E100043F00403044A9361019B5A1E0192002B84
:100E2000FAD102B0704700BF00000540A028001AA8
:100E3000FF2C31011230054B53F8200010F0010F48
:100E400002D1C0F3046070471120704700000540D4
:100E500000F11202034B53F82220034B185C00EA06
:100E600092007047000005403029001A08B510288C
:100E70000AD8DFE800F0440B0D18210924272A2D99
:100E800009093034383C400000203AE01E4838E080
:100E90001E4BD3F82C3103F00703042B01D01C4860
:100EA0002FE000202DE0194BD3F82C3103F007037D
:100EB000042B27D0164824E0164B186821E0164B67
:100EC00018681EE0154B18681BE0144B586818E0B2
:100ED00000F068F815E0002100F09AF811E0012117
:100EE00000F096F80DE0022100F092F809E00321ED
:100EF00000F08EF805E0042100F08AF801E04FF4DC
:100F0000004008BD0648FCE7001BB7000030044065
:100F100040787D017428001AA028001A3C010010B6
:100F200080F0FA0238B505460C460879FFF79EFFB7
:100F30006061194B2B44194A934221D818B380237E
:100F400023600023A360E360B5FBF0F32361144A40
:100F5000954203D903FB00F0A84207D0214628465A
:100F6000FFF796FEA3688BB1013BA360236983B1B1
:100F7000E2680AB1013AE260013B2361002038BD1A
:100F80004FF0FF30FBE74FF0FF30F8E74FF0FF3056
:100F9000F5E74FF0FF30F2E7103A6BFF1005940BC6
:100FA000FF5E4C0930B583B0174D6C6CC4F3036021
:100FB000FFF75CFF154B1B6801932B6C13F0010FBF
:100FC00020D0C4F30743C4F30132C4F30121C4F3B6
:100FD0008015013301320DF1080C614411F8041C35
:100FE00014F0800F08D13DB94900B3FBF1F3B0FB19
:100FF000F2F000FB03F003E0B0FBF2F003FB00F0C3
:1010000003B030BD0020FBE7000005402C29001A8A
:1010100038B50C460846FFF70DFF05462046FFF79A
:1010200017FF04462846FFF721FF0134B0FBF4F018
:1010300038BDFFFF30B400F11604A40004F1804471
:1010400004F5A02464681B2813D811291AD00E4D6A
:1010500025400AB145F400650BB145F0010545EAAC
:1010600001651630800000F1804000F5A020456049
:1010700008E044F001041630800000F1804000F5E3
:10108000A020446030BC7047FEF7FFE01B280CD85E
:101090001630800000F1804000F5A020406810F07C
:1010A000010F04D1C0F30460704711207047112074
:1010B000704708B5FFF7EAFFFFF7D8FE08BDFFFF4E
:1010C00071B901210AB141F00401022B0AD0B0F537
:1010D000A17F0AD3A0F59170064B43F830107047FA
:1010E0000321EFE741F02001F1E72030024B43F804
:1010F000301070470020054000100540B0F5A17F7A
:1011000009D3094AA0F5917052F8303043F0010339
:1011100042F830307047054A203052F8303043F002
:10112000010342F8303070470020054000100540B0
:1011300010B5B0F5A17F09D3A0F591730D4A52F80F
:10114000334014F0010F07D1002010BD00F120033F
:10115000094A52F83340F4E7FFF720FEFFF7A9FFF2
:1011600014F0E00F03D10123B0FBF3F0EDE702230D
:10117000FAE700BF002005400010054070B58AB0B6
:1011800005460E4614464CF250330993062818D0F3
:101190000023012229460420FFF74CFF4A4A536CE2
:1011A00043F0010353648DF8085001A93046FFF75E
:1011B000B9FE464B9E4216D9019B13F0400F03D057
:1011C000FEE7FFF711FEE3E713F0800F05D023F0F1
:1011D000800301930025012607E0049B013304935B
:1011E0000125002601E000252E469DF80820019BE0
:1011F00043EA0263059A43EA0243039A43EA02334D
:10120000049A43EA022343F400632F4A53642E4BAB
:101210001B6C13F0010FFAD00023012209210420D6
:10122000FFF708FF06B34CF250330993099B5A1E8F
:101230000992002BFAD1019B43F0800301939DF8A2
:10124000082043EA0263059A43EA0243039A43EA09
:101250000233049A43EA022343F400631A4A5364B4
:10126000002C2ED10AB070BD002DF9D04CF25033B5
:101270000993099B5A1E0992002BFAD1049B5A1E0E
:1012800004929DF80810019B43EA0163059943EA23
:101290000143039943EA013343EA022343F4006321
:1012A000094A5364DCE70A4800EB8401CB788A786A
:1012B000497810F82400FFF7BDFE0134112CF2D953
:1012C000D0E70024FAE700BF0000054080778E06D3
:1012D000A429001A7047FFFF034B984201D08320D6
:1012E0007047A520704700BF00500C40044B984247
:1012F00002D040F2022070474FF4F170704700BFF7
:1013000000500C40036823F47F43090289B219435B
:1013100001600261704770B506460D46FFF7E6FFB3
:10132000FFF706FF02224FF0FF33002100E02146C5
:10133000AB420BD94C1C02FB04F3B0FBF3F39D4210
:10134000F6D2FF2CF3D902320021F1E73046FFF745
:10135000D9FF70BD10B50446FFF7BEFFFFF7CEFE04
:101360002046FFF7C3FFFFF7C9FE636823F00403BD
:101370006360236823F0FF0343F0070323600249FF
:101380002046FFF7C8FF10BDA0860100012909D142
:10139000C0EBC0008200044B13441A69137DDBB21A
:1013A000042BFBD0704700BF0000001070B505464D
:1013B000064EC400221A930033449888FFF79EFE1D
:1013C000641BA300F3586C229A6170BD00000010EA
:1013D0002DE9F0410C460B4EC5002B1A4FEA83084D
:1013E00006EB08039888FFF7A3FEB0FBF4F056F86D
:1013F000083042081A6156F808301A69801A586194
:10140000BDE8F0810000001008B50B4A0B4B9A6054
:1014100003F50C731B6903F47F63202B04D0FFF7E3
:10142000A5FAFFF72BFA08BD044AD2F8883043F436
:101430007003C2F88830F2E70000001A00ED00E007
:10144000044B1860044A136843F001031360012041
:10145000704700BF38000010001000E070B504466F
:1014600000EB400293001F4AD6587569EDB215F0A3
:10147000010F09D020B91C4B1B680BB10020984705
:10148000032C13D0052C18D015F0200F0DD0736845
:1014900013F0020F09D024B9144B1B680BB10020C4
:1014A0009847032C10D0052C15D070BD104B1B682D
:1014B000002BE7D000209847E4E70E4B1B68002B79
:1014C000E2D000209847DFE70B4B1B68002BEAD0E7
:1014D00000209847E7E7094B1B68002BE5D0002068
:1014E0009847E2E7EC29001A44010010500100106F
:1014F000480100104C010010540100105801001068
:1015000041B300EB40039A001E4B134493F90A3099
:10151000002B18DB03F1604303F56143A02283F83D
:10152000002300EB40008200164B134493F90A306D
:10153000002B25DB03F01F015B0901228A401249C1
:1015400041F82320704703F00F03104A1A44A023E8
:101550001376E6E700EB400082000A4B134493F950
:101560000A30002B0CDB03F01F015B0901228A40CB
:101570002033054941F82320BFF34F8FBFF36F8F0E
:10158000704700BFEC29001A00E100E0FCEC00E02D
:1015900011B101291DD0704782B101280FD9C31E96
:1015A000DBB2012B0ED905280FD0052300EB40003C
:1015B000820013498A5851680B4353607047114B9E
:1015C0001A60ECE7104B1A60EDE7104B1A60052328
:1015D000ECE7002AF2D0012807D9C31EDBB2012BA9
:1015E00006D9052807D00223E0E7094B1A60F4E783
:1015F000084B1A60F5E7084B1A600223D6E700BFD4
:10160000EC29001A44010010480100104C010010A0
:1016100050010010540100105801001000EB400070
:101620008300034AD358586900F02000704700BF78
:10163000EC29001A00EB40008300024AD3581868D6
:10164000C0B27047EC29001A00EB40008300024A48
:10165000D3581960704700BFEC29001A2DE9F843F0
:1016600080468946194C45002A189300E618E75829
:101670003846FFF797F949463846FFF7BDF9072383
:10168000BB603B680123FB6530797379B27942F026
:1016900018020F4903EB401341F82320F079337A05
:1016A000727A42F0D00203EB401341F82320B8F1E4
:1016B000010F01D0BDE8F883064AD36C43F0300334
:1016C000D3641A22C1F80823F4E700BFEC29001AFA
:1016D000006008400010084038B504460D4620461A
:1016E000FFF79CFF0028FAD029462046FFF7ACFF01
:1016F00038BD08B50320FFF7B1FE08BD08B50520C9
:10170000FFF7ACFE08BDFFFF014BD3E900017047B6
:101710006001001018B1044B07221A607047024B99
:1017200000221A60704700BF10E000E038B550EAB0
:1017300001042AD010F1FF3241F1FF33002B08BF22
:10174000322A27D2144BC3E90001144B1B68A3FBB8
:10175000004503FB01554FF47A72002320462946C9
:1017600000F06CFA0138B0F1807F09D20C4B586060
:101770000C4AE02182F8231000229A6007221A60A6
:101780000120FFF7C7FF012038BD0020FFF7C2FF8F
:101790000020F9E70020F7E7400000107C0100106E
:1017A00010E000E000ED00E008B5074A136851685A
:1017B000013341F1000113605160044B1B6813B108
:1017C000034A1068984708BD6001001068010010C6
:1017D0005C010010FEE7704738B5002401E00134D9
:1017E000E4B2032C12D865B2094B1A6804F00F0159
:1017F00001238B401A42F2D0064B53F824300020CC
:1018000098470123AB40024A1360E8E738BD00BFA8
:10181000004008404800001038B5002401E00134C1
:10182000E4B2032C13D865B2094B1A6804F00F0117
:1018300001238B401A42F2D0231D064A52F823306E
:10184000002098470123AB40014A1360E7E738BD09
:10185000005008404800001038B5002401E0013471
:10186000E4B2032C14D865B20A4B1A6804F00F01D5
:1018700001238B401A42F2D004F10803064A52F8C1
:101880002330002098470123AB40024A1360E6E76B
:1018900038BD00BF00300C404800001038B50024AF
:1018A00001E00134E4B2032C14D865B20A4B1A6883
:1018B00004F00F0101238B401A42F2D004F10C0313
:1018C000064A52F82330002098470123AB40024AD1
:1018D0001360E6E738BD00BF00400C404800001030
:1018E00030B40B4D00EB80002C182856087094F98A
:1018F0000110117094F902201A7094F90320029BD0
:101900001A7094F90420039B1A7030BC704700BF12
:10191000342A001A10F1020F00F0C780B0F1FF3F27
:1019200000F0C58070B584B00C4600238DF80F30F0
:101930008DF80E308DF80D308DF80C308DF80B30A1
:101940000DF10B03019303AB00930DF10D030DF1AA
:101950000E020DF10F01FFF7C3FF052C00F2A98065
:10196000DFE804F00981274563035348FFF7B2FC21
:10197000012004B070BD9DF80F109DF80E309DF849
:101980000D2042F0D00203EB41134C4941F82320D3
:101990009DF80C309DF90B20012000FA02F1464C15
:1019A00003F5006354F8232022EA010244F82320BF
:1019B000DFE79DF80F109DF80E309DF80D2042F0E6
:1019C000C00203EB41133D4941F823209DF80C3040
:1019D0009DF90B20012000FA02F1374C03F500635A
:1019E00054F8232022EA010244F82320C1E79DF89D
:1019F0000F109DF80E309DF80D2042F0D80203EB39
:101A000041132E4941F823209DF80C309DF90B20FD
:101A1000012000FA02F1284C03F5006354F823205A
:101A200022EA010244F82320A3E79DF80F109DF855
:101A30000E309DF80D2042F0C80203EB41131F4900
:101A400041F823209DF80C309DF90B20012000FA6D
:101A500002F1194C03F5006354F8232022EA010235
:101A600044F8232085E79DF80F109DF80E309DF86F
:101A70000D2042F0D00203EB4113104941F823201E
:101A80009DF80C409DF90B20012000FA02F10A4B51
:101A900004F5006553F82560314343F82510D2B2B0
:101AA00003EB44130021995463E7002070470020A2
:101AB000704700205DE700BF00400F400060084015
:101AC00008B5044B1B681B68DB68034A106898471D
:101AD00008BD00BF800100106C01001008B5FFF7C1
:101AE0007DF81A4B1868FFF7ABFC01200021FFF7C7
:101AF0001DFE05210020FFF70DFF00212420FFF728
:101B000009FF00212520FFF705FF00212620FFF710
:101B100001FF00212720FFF7FDFE01212820FFF70C
:101B2000F9FE01212920FFF7F5FE01212A20FFF708
:101B3000F1FE01212B20FFF7EDFE01212C20FFF704
:101B4000E9FE01212D20FFF7E5FE08BD7C01001014
:101B500010B5044610461946044BD3E9002300F0A3
:101B60006DF8C4E902010023237410BD4000001089
:101B7000F8B50446057C3DB9FFF7C6FDC4E9000190
:101B8000012323742846F8BDFFF7BEFD2368626871
:101B9000C61A61EB0207D4E902239F4208BF9642AE
:101BA00003D3002323740125ECE70025EAE7FFFFB8
:101BB000012303FA00F0014B58627047007008409F
:101BC000F8B5124B1A5C124BD969012383400B42C2
:101BD0000CD010498C6802EB4202D1000E4A0A4434
:101BE00054600B4AD361FFF7E3FFF8BD09498E68E3
:101BF000094D51008F18FC0027462C44A6606468EC
:101C0000361B3D44EE60024A1362ECE71C2B001ABF
:101C100000700840004008408800001008B500200F
:101C2000FFF7CEFF08BD08B50120FFF7C9FF08BDCB
:101C300008B50220FFF7C4FF08BDFFFF53B94AB93A
:101C4000002908BF00281CBF4FF0FF314FF0FF30C4
:101C500000F074B9ADF1080C6DE904CE00F006F89F
:101C6000DDF804E0DDE9022304B070472DE9F04718
:101C7000089E04468846002B40F085808A4215461F
:101C800048D9B2FA82F24AB1C2F1200701FA02F34E
:101C900020FA07F7954047EA030894404FEA154EAB
:101CA000230CB8FBFEF71FFA85FC0EFB178843EAEE
:101CB000084307FB0CF1994209D9EB1807F1FF30F3
:101CC00080F0E380994240F2E080023F2B445B1AAF
:101CD000A4B2B3FBFEF00EFB103344EA034400FB56
:101CE0000CFCA44509D92C1900F1FF3380F0CB80FE
:101CF000A44540F2C88002382C4440EA0740A4EBD7
:101D00000C0400271EB1D4400023C6E90043394625
:101D1000BDE8F087002A53D0B2FA82F2002A40F0E0
:101D2000B680491B4FEA154E1FFA85F80127B1FB13
:101D3000FEFC230C0EFB1C1143EA014308FB0CF1D3
:101D4000994207D9EB180CF1FF3002D2994200F208
:101D5000EC808446591AA3B2B1FBFEF00EFB1014BE
:101D600043EA044408FB00F8A04507D92C1900F108
:101D7000FF3302D2A04500F2DC801846A4EB080431
:101D800040EA0C40BEE78B4208D9002E78D00027ED
:101D9000C6E9000138463946BDE8F087B3FA83F753
:101DA0007FB98B4202D3824200F2BD80841A61EB7C
:101DB000030301209846002EA9D0C6E90048A6E7F3
:101DC000FFDEC7F12005BB4022FA05FC4CEA030CFC
:101DD00001FA07F420FA05F821FA05F34FEA1C4E40
:101DE00048EA0404B3FBFEF9210C0EFB19331FFA79
:101DF0008CF841EA034309FB08FA9A4502FA07F214
:101E000000FA07F10BD91CEB030309F1FF3080F056
:101E100088809A4540F28580A9F102096344A3EBCA
:101E20000A03A4B2B3FBFEF00EFB103344EA0344F2
:101E300000FB08F8A04508D91CEB040400F1FF33AF
:101E40006BD2A04569D90238644440EA0940A4EB4A
:101E50000804A0FB02894C45C6464B4654D351D0DA
:101E6000002E69D0B1EB0E0264EB030404FA05F511
:101E700022FA07F3FC401D43C6E90054002746E759
:101E80003746304643E7184637E707461FE7C2F1B3
:101E9000200320FA03F7954001FA02F021FA03F338
:101EA0004FEA154E3843010CB3FBFEF71FFA85F8D5
:101EB0000EFB173341EA034107FB08F38B4204FA98
:101EC00002F407D9691807F1FF3C28D28B4226D9C2
:101ED000023F2944CB1A81B2B3FBFEF00EFB103354
:101EE00041EA034100FB08F38B4207D9691800F16E
:101EF000FF3C10D28B420ED902382944C91A40EA5D
:101F0000074714E74145ABD2B8EB020E69EB0C0270
:101F100001381346A4E76046F0E7184695E76746A0
:101F2000D8E781467BE7384645E7ACF1020C2B4405
:101F300010E702382C4421E73746E8E6704700BF37
:101F40008A892DE9F041054610070C4658D44B68A4
:101F5000002B05DC0B6C002B02DC0020BDE8F081BF
:101F6000E66A002EF9D0002312F480522F682B600D
:101F700032D0606DA3895A0705D56368C01A636BB8
:101F80000BB1236CC01A00230246E66A216A284678
:101F9000B047431CA38906D129681D2949D82A4A7C
:101FA000CA40D60745D500226260D9042269226062
:101FB00004D5421C01D12B6803B96065616B2F60A9
:101FC0000029CAD004F14403994202D0284600F007
:101FD0009DF900206063C1E7216A01232846B047CC
:101FE000411CC7D12B68002BC4D01D2B01D0162B50
:101FF00001D12F60B1E7A38943F04003A381ADE78E
:102000000F69002FA9D093070E6808BF4B690F60B6
:1020100018BF0023A6EB07088B60B8F1000F9CDD0A
:1020200043463A46216AA66A2846B047002806DC9D
:10203000A38943F04003A3814FF0FF308EE70744AC
:10204000A8EB0008E9E700BF0100402038B50B69A4
:1020500005460C4613B90025284638BD18B18369DA
:102060000BB900F087F8144B9C421BD16C68B4F993
:102070000C30002BEFD0626ED00704D4990502D447
:10208000A06D00F038F928462146FFF759FF636E2E
:10209000DA070546E0D4A3899B05DDD4A06D00F0E6
:1020A0002BF9D9E7054B9C4201D1AC68DFE7044B23
:1020B0009C4208BFEC68DAE7402B001A602B001A3C
:1020C000202B001A002310B50446C0E900338360BA
:1020D00081814366C281C0E90433836119460822C5
:1020E0005C3000F00AF9054B6362054BA362054BB7
:1020F000E362054B2462236310BD00BF4925001A2B
:102100006B25001AA325001AC725001A014900F003
:10211000AFB800BF4D20001A70B54A1E6825554360
:102120000E4605F1740100F03FF9044640B100216C
:10213000C0E900160C30A06005F1680200F0DDF87F
:10214000204670BD014800F0D6B800BF8C010010D9
:10215000014800F0D1B800BF8C010010014800F028
:10216000CAB800BF87010010014800F0C5B800BF21
:102170008701001010B50446FFF7F0FFA3691BB1FB
:10218000BDE81040FFF7F0BFC4E912332365134BDD
:10219000134A1B68A262A34204BF0123A361204625
:1021A00000F020F86060204600F01CF8A060204697
:1021B00000F018F80022E06004216068FFF782FF59
:1021C00001220921A068FFF77DFF02221221E068A9
:1021D000FFF778FF0123A361D2E700BF802B001A2D
:1021E0000D21001AF8B50746FFF7ACFF1E4B1E681D
:1021F000B36913B93046FFF7BDFF4836D6E901345D
:10220000013B03D533680BB33668F7E7B4F90C50DC
:10221000D5B9164BE36004F15800656600F06AF822
:10222000FFF796FF2560C4E90155C4E90455A5618F
:102230000822294604F15C0000F05FF8C4E90D555E
:10224000C4E912552046F8BD6834D9E70421384660
:10225000FFF762FF044630600028D5D1FFF778FF12
:102260000C233B60EEE700BF802B001A0100FFFF4C
:102270002DE9F8438046894600F14804002614B948
:102280003046BDE8F883D4E90175013F01D52468E3
:10229000F5E7AB89012B07D9B5F90E30013303D02F
:1022A00029464046C84706436835EEE770B50D4DF0
:1022B0000D4C641BA4100026A64209D10B4D0C4CFA
:1022C000FEF7A5F9641BA4100026A64205D170BD37
:1022D00055F8043B98470136EEE755F8043B98471C
:1022E0000136F2E7842B001A842B001A842B001A83
:1022F000882B001A70477047704702440346934288
:1023000000D1704703F8011BF9E7FFFF38B5054618
:10231000002945D051F8043C0C1F002BB8BFE4182D
:1023200000F07AFA1F4A1368104633B963601460EC
:102330002846BDE8384000F075BAA3420CD92168A0
:102340006218934204BF1A685B68636004BF521846
:1023500022600460ECE713465A680AB1A242FAD937
:1023600019685818A0420BD12068014458188242BD
:102370001960DDD1106852685A6001441960D7E7CE
:1023800002D90C232B60D3E7206821188A4204BFAE
:1023900011685268626004BF091821605C60C7E779
:1023A00038BD00BF70010010F8B5CD1C25F0030545
:1023B00008350C2D38BF0C25002D064601DBA9423F
:1023C00003D90C2333600020F8BD00F025FA214921
:1023D0000A6814469CB9204F3B6823B92146304611
:1023E000FEF76AF9386029463046FEF765F9431C66
:1023F00023D10C233360304600F014FAE3E723685E
:102400005B1B17D40B2B03D923601C44256004E00D
:102410006368A2420CBF0B605360304600F002FAC2
:1024200004F10B00231D20F00700C21ACCD01B1AA8
:10243000A350C9E722466468CCE7C41C24F0030417
:10244000A042E3D0211A3046FEF736F90130DDD143
:10245000CFE700BF700100107401001070B50E4688
:10246000054618B183690BB9FFF784FEAB69AC6808
:1024700013B92846FFF77EFE2C4B9C4220D16C6896
:10248000636EDB0705D4A389980502D4A06DFFF71E
:1024900032FFA38919071DD52369DBB1013EA3686B
:1024A00016F8011F013BA36039BB002B38DA224626
:1024B0000A21284600F08CF8013011D00A2511E0DD
:1024C0001B4B9C4201D1AC68DAE71A4B9C4208BF17
:1024D000EC68D5E72146284600F0CCF80028DDD08E
:1024E0004FF0FF35636EDA0705D4A3899B0502D44C
:1024F000A06DFFF701FF284670BD002B04DAA2692A
:102500009A4206DC0A2904D023685A1C22601970FA
:10251000C5E72246284600F05BF80130BFD1DFE76F
:1025200023680A255A1C22601D70DBE7402B001A25
:10253000602B001A202B001A024B01461868FFF787
:102540008DBF00BFD000001010B50C46B1F90E10C1
:10255000FEF776F80028ABBF636DA3891B1823F440
:102560008053ACBF6365A38110BD2DE9F0411F46C8
:102570008B89DB0505460C46164605D5022300224D
:10258000B1F90E10FEF757F8A389B4F90E1023F431
:102590008053A38132463B462846BDE8F041FEF712
:1025A00076B810B50C46B1F90E10FEF744F8431C8E
:1025B000A38915BF606523F4805343F48053A3813E
:1025C00018BFA38110BDB1F90E10FEF721B8FFFFAF
:1025D000F8B50E461446054618B183690BB9FFF7E6
:1025E000C9FD214B9C422BD16C68A369A360A389D0
:1025F0001A072FD523696BB323692068C01A636952
:10260000F6B28342374604DC21462846FFF71EFD1A
:1026100030BBA368013BA36023685A1C22601E7074
:1026200063690130834204D0A389DB0706D50A2EF3
:1026300004D121462846FFF709FD88B93846F8BD80
:102640000A4B9C4201D1AC68CFE7094B9C4208BFC2
:10265000EC68CAE72146284600F00CF80028CBD0E9
:102660004FF0FF37EAE700BF402B001A602B001A3B
:10267000202B001A324B70B51D6806460C4625B15A
:10268000AB6913B92846FFF775FD2E4B9C420FD15D
:102690006C68B4F90C309AB215072CD4D00611D45A
:1026A0000922326043F04003A3814FF0FF303EE047
:1026B000254B9C4201D1AC68EBE7244B9C4208BF00
:1026C000EC68E6E7510712D5616B41B104F14403B0
:1026D000994202D03046FFF719FE00236363A389B5
:1026E00023F02403A3810023636023692360A3896B
:1026F00043F00803A38123694BB9A38903F4207332
:10270000B3F5007F03D02146304600F045F8A2899A
:1027100012F001030CD00023A36063695B42A36144
:10272000236953B9B4F90C3013F08000BAD170BDED
:10273000920758BF6369A360F2E70020F7E700BF84
:10274000D0000010402B001A602B001A202B001A1A
:1027500070B50E46B1F90E10002996B014461D460C
:1027600007DA00232B60B3891A0610D44FF4806374
:102770000EE06A46FDF751FF0028F2DB019A02F4F1
:102780007042A2F500535A425A412A60EEE74023B4
:102790000020236016B070BD8B8973B59D07064677
:1027A0000C4607D504F147032360236101236361CD
:1027B00002B070BD01AB6A46FFF7CAFF009905463B
:1027C0003046FFF7F1FD48B9B4F90C309A05EFD463
:1027D00023F0030343F00203A381E3E70D4BB3624D
:1027E000A389206043F08003A381009B6361019B68
:1027F00020615BB1B4F90E103046FDF713FF28B12C
:10280000A38923F0030343F00103A381A3891D439C
:10281000A581CDE70D21001A0148FFF76CBD00BF6F
:10282000880100100148FFF767BD00BF8801001054
:10283000020A000E00020B010B00020C010C000248
:102840000005000402010501040202050204010062
:102850000004000101000800010200090001060156
:102860000900060103000006040303004572726FAD
:10287000722E200000000000000400080009010979
:10288000050005010502000E010B010C0300030306
:102890000304050F05100305030603070208FFFFE5
:1028A000001BB700010F01010200440002014400B7
:1028B00002024400020A4000020B4000020C4000E9
:1028C00001005000010150000102500001065000BB
:1028D000060150000604500006055000060754008B
:1028E0000608540006095000060A5000060B500066
:1028F000060C50000F04F0000103D5000104D500C0
:10290000070116000702560002035200020452009B
:10291000090552000906570006025700C201A2012C
:102920008201620181008200A100A200010204086C
:10293000030F0F0FFF000000000005000A00200039
:10294000240009004000400005006000A6000400CB
:10295000C000C3000200E000E0000100000100012F
:102960000300200120010600400140010C0042014B
:10297000420119006201620113008201820112000A
:10298000A201A2011100C201C2011000E201E20194
:102990000F00020202020E00220222020D00230298
:1029A00023021C0000010100090901000A090100BD
:1029B0000107010102090100060901000C090101DA
:1029C0000D0901000E0901000F09010010090100A5
:1029D000110901001209010013090100141101007D
:1029E000191101001A1101001B110100001008400B
:1029F0000604020605021800001008400905070930
:102A00000607180000200840000000000000190020
:102A100000100C400701060702061A0000100C40C7
:102A2000010F010110011A0000200C4002030202F4
:102A300004021B000401000201070500030D01054B
:102A40000001080402000202040300020304000063
:102A50000200070400030C03020405090301040536
:102A60000802030405030204040504060C0002081E
:102A7000060B0003070609000305060704050F06F9
:102A80000400030304040002040405000205040614
:102A9000000206040804050C040A04050E010300E4
:102AA000000A011400000F011200000D01110000C6
:102AB0000C0110000003070700030F0001000001D4
:102AC0000000000000060A000306060804051006C0
:102AD000050003040601000300040904050D0104B8
:102AE00000000B010F0000020100000004010100C2
:102AF00000080102000009010600010902000405A6
:102B00000002010405010202040502020A00000E8F
:102B1000020B00010B020C00010CFFFF000102FF81
:102B200000000000000000000000000000000000A5
:102B30000000000000000000000000000000000095
:102B40000000000000000000000000000000000085
:102B50000000000000000000000000000000000075
:102B60000000000000000000000000000000000065
:102B70000000000000000000000000000000000055
:042B8000D40000106D
:042B8400BF08001A6C
:082B8800E4F0FF7F01000000F2
:102B900000100A40220000008D13001A00000000FF
:102BA00000000000000000000000000000000E40D7
:102BB000010000008D13001A00000000000000005A
:102BC000000000000000000000CB280CFFFFFFFF0A
:102BD0000100000000000000D717001AD517001AE6
:102BE000D517001AD517001AD717001AD517001ACB
:102BF000D517001AD517001AD717001AD517001ABB
:102C0000D517001AD517001AD717001AD517001AAA
:102C1000D517001AD517001A0000000000000000A8
:102C200000000000000000001F010003040000007D
:102C30000100000000000000000000000000000093
:102C40001E0101051000000002000000000000004D
:102C500000000000000000001D010203060000004B
:102C6000D400001000000000402B001A602B001A56
:102C7000202B001A000000000000000000000000EF
:102C80000000000000000000000000000000000044
:102C90000000000000000000000000000000000034
:102CA0000000000000000000000000000000000024
:102CB0000000000000000000000000000000000014
:042CC0000000000010
:040000051A00058553
:00000001FF
